:020000040800F2
:100000004839002049010008F90C0008F10C0008EB
:10001000F50C00088D0B00085114000800000000CA
:10002000000000000000000000000000A10E000819
:10003000910B000800000000710D0008A50E0008DB
:100040006301000863010008630100086301000800
:1000500063010008630100086301000863010008F0
:1000600063010008630100086301000863010008E0
:1000700063010008630100086301000863010008D0
:1000800063010008630100086301000863010008C0
:1000900063010008630100086301000863010008B0
:1000A00063010008630100086301000863010008A0
:1000B0006301000863010008630100086301000890
:1000C0006301000863010008630100086301000880
:1000D0006301000863010008630100086301000870
:1000E0006301000863010008630100086301000860
:1000F0006301000863010008630100086301000850
:10010000630100086301000863010008630100083F
:10011000630100086301000863010008630100082F
:10012000630100086301000863010008630100081F
:10013000DFF810D000F0B8FC00480047F962000872
:1001400000F0F0FC48390020064880470648004788
:10015000FEE7FEE7FEE7FEE7FEE7FEE7FEE7FEE777
:10016000FEE7FEE7310F0008310100080B460146AB
:10017000184600F049BAF0B480EA0102D40F4200F8
:10018000B2EB410F02D20246084611464A0042D065
:10019000C30DDDB2C1F3C752AD1A202D35DAC1F35C
:1001A000160141F4000204B15242C5F1200602FAE0
:1001B00006F12A411044B3EBD05F23D0C4B1012D26
:1001C000A0EBC35009DCF0BC4FF0004202EAC3527E
:1001D000DBB200F5000000F044BA400000F180708E
:1001E00000EBC350A0F1807040EAD170490009E0F3
:1001F000490841EAC071A0EBC35000F50000400877
:1002000000EBC350F0BC00F023BA6142012202EBC4
:100210004101001BF6E7F0BC704781F00041AAE7FE
:1002200080F00040A7E780EA010210B502F0004329
:10023000400022D04A001FD0010E01EB1261C0F332
:100240005600C2F3560240F4000042F40002A0FB44
:10025000022000047F39140400D0401C50EA1240F0
:1002600001D44000491EC2B20C0604EBD010401C61
:100270004008802A02D003E0002010BD20F00100D9
:10028000002900DA0020184310BD30B480EA0102D2
:1002900002F0004530F0004221F0004013D090B150
:1002A000C30DD40DC2F31601C0F31600E41A41F4D5
:1002B000000140F400027D34914201D3641C00E04F
:1002C0004900002C02DA30BC002070474FF40000D7
:1002D0000023914201D3891A034340084FEA4101A8
:1002E000F7D151B1914202D14FF0004105E002D265
:1002F0004FF0010101E06FF0010103EBC45028440D
:1003000030BC00F0A5B92DE9FE4F81EA030404F0EA
:10031000004421F0004100944FF0000B23F0004313
:1003200050EA01045ED052EA03045BD0C3F30A54DE
:10033000C1F30A552C44A4F2F3340194A0FB0254F7
:10034000C1F3130141F48011C3F3130343F4801389
:1003500001FB024400FB034E840A970A44EA8154DD
:1003600047EA8357A4FB076802958D0A05FB0785BA
:100370004FEA932C04FB0C542705029D4FEA0658C4
:1003800047EA1637B5EB08056EEB070C870E920EA1
:1003900047EA811742EA8312A7FB0201B6EB0B0181
:1003A00064EB00042B0D43EA0C335E1844EB1C5045
:1003B000DA465146E7FB0201C5F313044FEA0B335B
:1003C00043EA14534FEA0432019C43EA0603A4F1C2
:1003D0000C040294009CCDE900B400F07FF903B056
:1003E000BDE8F08F00200146F9E7002801DBC0F1ED
:1003F0000040002901DBC1F10041814201D8012008
:10040000704700207047002801DBC0F10040002940
:1004100001DBC1F10041814201D901207047002078
:10042000704730B5041E71F1000404DB4FF0004446
:10043000404264EB0101141E73F1000405DB1C460D
:100440004FF00043524263EB0403801A994101D3F9
:10045000012030BD002030BD30B5041E71F1000414
:1004600004DB4FF00044404264EB0101141E73F1C1
:10047000000405DB1C464FF00043524263EB0403CB
:10048000101A8B4101D2012030BD002030BDC10FB8
:1004900080EAE0700844CA079623002100F0E1B822
:1004A00096230022114600F0DCB80EB540F233412D
:1004B00002910021CDE900110A460B4600F00EF929
:1004C00003B000BD00F0004220F00040C10DC0F3B9
:1004D000160040F400007F2901DA002070479629B9
:1004E00003DCC1F19601C84001E096398840002A3A
:1004F000F4D04042704770B5C1F30A5201F0004594
:100500000024C1F3130140F2FF3341F480119A42F9
:1005100001DA002070BD40F233439A42A2F2334226
:1005200003DC524200F060F800E090402C43F1D030
:10053000404270BD00F0004230F000400AD0C10DD2
:1005400001F56071C0F3160042EA0151C20840078C
:100550001143704700200146704730B50B460146F5
:1005600000202022012409E021FA02F59D4205D352
:1005700003FA02F5491B04FA02F52844151EA2F1FC
:100580000102F1DC30BD2DE9F05F05460020924606
:100590009B4688460646814640241BE02846414645
:1005A0004746224600F020F853465A46C01A914169
:1005B00010D311461846224600F08EFA2D1A67EB2A
:1005C00001084F4622460120002100F085FA17EB72
:1005D00000094E41201EA4F10104DFDC48463146EB
:1005E0002A464346BDE8F09F202A04DB203A21FA40
:1005F00002F00021704721FA02F3D040C2F120023C
:1006000091400843194670472DE9F04107461546C9
:100610000E46102005F0C6FF040013D06760C4E941
:1006200002650948AFF3008000F078FA01682160A4
:1006300006490460002008600348AFF300800020F2
:10064000BDE8F0810120FBE7D16200081400002022
:100650000029A8BF7047401C490008BF20F00100D6
:10066000704710B4B0FA80FC00FA0CF050EA0104B4
:1006700004BF10BC704749B1CCF1200421FA04F446
:1006800011FA0CF118BF012121430843A3EB0C011F
:10069000CB1D4FEA00614FEA102042BF002010BC82
:1006A000704700EBC35010440029A4BF10BC704732
:1006B000401C490008BF20F0010010BC704710B575
:1006C000141E73F1000408DA401C41F10001921875
:1006D0005B411A4301D120F0010010BD2DE9F04D1E
:1006E00092469B4611B1B1FA81F202E0B0FA80F273
:1006F0002032904600F0F0F904460F4640EA0A0026
:1007000041EA0B0153465A46084313D0114653EAB7
:10071000010019D0C8F140025046FFF765FF0546B9
:100720000E4650465946424600F0D6F9084305D0D9
:10073000012004E020463946BDE8F08D0020054345
:1007400046EAE0762C4337430A986305E40AA0EBB7
:1007500008000022FD0A44EA47540A3002D500206E
:100760000146E9E7010510196941DDE9084500196D
:100770006941BDE8F04DA2E72DE9FE4F804681EAD0
:100780000300C00F0C46009021F0004123F000450B
:10079000B8EB0200A94105D24046214690461C46CE
:1007A0000B46024623F00040104347D0270DC7F305
:1007B0000A00C3F30A510290401A019040286BDAF4
:1007C000C3F3130040F4801B0098924620B100232D
:1007D000D2EB030A63EB0B0B01985946C0F14002C0
:1007E000504600F079F906460D4650465946019AA2
:1007F00000F081F910EB08006141002487EA1152F2
:1008000084EAE7731A4340D0009A62B3019A012A3E
:100810004FEA075215DC001B61EB02014FF000426A
:1008200002EA0752CDE90042001C41F58011324630
:100830002B46FFF753FF03B0BDE8F08F404621463B
:10084000F9E7001B61EB0201001C41F58013001861
:100850005B412018A2F5001747EB030140EAD57071
:10086000B6196D4111E06D084FEA360645EAC075CC
:100870004FEA0752001B61EB0201001C41F5801199
:1008800049084FEA30000019514132462B4603B067
:10089000BDE8F04FFFF713BF00980122400000238E
:1008A000D0EB020263EBE073009821464FEAE0745C
:1008B000B8EB000061EB0401E9E783F000435BE77C
:1008C00081F0004158E72DE9F04D81EA030404F07E
:1008D000004B21F0004514464FF0000A23F0004180
:1008E00050EA050220D054EA01021DD0C5F30A5790
:1008F0000246C5F31303C1F31300C1F30A5640F4D3
:10090000801543F48013A7EB0608101BD64608F2A7
:10091000FD3873EB050002D308F1010801E09218DD
:100920005B41B8F1000F03DA00200146BDE8F08D0D
:1009300000204FF48011064684460EE0171B73EB2F
:10094000050705D3121B63EB050306434CEA010CB4
:1009500049084FEA300092185B4150EA0107EDD197
:1009600052EA030012D082EA040083EA0501084338
:1009700005D0101BAB4106D20122002306E0002265
:100980004FF0004302E06FF0010253101AEB060033
:100990004CEB085110EB0A0041EB0B01BDE8F04DA8
:1009A000FFF78DBE2DE9F04D00231A461B1A8A4130
:1009B00003DB00200146BDE8F08DC1F30A52C1F30C
:1009C000130141F480154FF0000BD10702D100183C
:1009D0006D41521E0027044640F2FF11384601EBDC
:1009E000620A3E468046024600204FF48011FFF71F
:1009F000FBFDC2197141BB1846EB0100B4EB030CBF
:100A000075EB000C04D3E41A65EB000517460E469F
:100A1000241908F101006D4180463428E3DDF919FD
:100A200046EB0600091BA84103D24FF0FF321346E4
:100A300001E0002213461BEB070046EB0A51BDE81C
:100A4000F04DFFF73CBEC1F30A52C1F3130140F26F
:100A5000FF3341F480119A4202DA002001467047C8
:100A600040F233439A42A2F2334202DC5242FFF791
:100A7000BBBD00F031B8000030B5041E71F10004B8
:100A800004DB4FF00044404264EB0101141E73F19B
:100A9000000405DB1C464FF00043524263EB0403A5
:100AA000994208BF904230BD1CB5094800900948E2
:100AB00001900546009C06E0E06840F0010394E8E0
:100AC000070098471034AC42F6D3FFF735FB00001F
:100AD000FCE700081CE80008202A04DB203A00FAA2
:100AE00002F1002070479140C2F1200320FA03F385
:100AF000194390407047202A06DBCB17203A41FA71
:100B000002F043EAE07306E041FA02F3D040C2F19A
:100B10002002914008431946704700000048704782
:100B2000100000202DE9F84306461548AFF3008079
:100B3000FFF7F4FF81464D46E846124F16E026B116
:100B4000E068B04201D0254610E0206828600C48DB
:100B5000C7F80080AFF30080D4E901018847084856
:100B6000AFF300803968414500D04D462C68002C19
:100B7000E5D1002038600248AFF30080BDE8F8837B
:100B8000D16200081400002070470000FEE700005A
:100B900070470000CA7802F00F0CD30644BF8B7870
:100BA0004CEA030C2DE9F04709880B0624D0864651
:100BB0005EF8143B00F1100800254FF0010A4FF0D9
:100BC0000F09002406E000BF37600134082C05F14E
:100BD000040510D00AFA04F70F42F6D009FA05F618
:100BE000B3430CFA05F63343282A7646ECD0482A5C
:100BF000EBD14646E8E70360B1F5807F38BFBDE83A
:100C0000F087436800F1100E00F1140A00254FF43C
:100C100080794FF00F08002706E000BF26600137FB
:100C2000082F05F1040510D009FA07F60E42F6D098
:100C300008FA05F4A3430CFA05F42343282A544682
:100C4000ECD0482AEBD17446E8E74360BDE8F08772
:100C5000B0B540F2040CC4F2010C0CF118031A46B2
:100C6000B0F1FF3FC4BF0422C4F20102146800F4D3
:100C70004012B2F5401F1FFA80FE08D1DCF8005088
:100C800024F0706225F07064CCF8004011E0C202DC
:100C900006D46FF00F0202EA50420EFA02F204E0AC
:100CA000C0F30342032505FA02F224EA020242F0ED
:100CB00070626FF00F0404EA504400290EFA04F544
:100CC00018BF2A43B0F1FF3FC8BF63461A60B0BDEA
:100CD0008068084018BF01207047000041617047DC
:100CE000016170471023002A08BF1423C1507047C8
:100CF000FEE70000FEE700007047000010B5C17875
:100D000000294EF20011CEF200011AD04EF60C521C
:100D1000CEF200021268072323EA12220F23C2F147
:100D2000040C23FA02F24378847890F800E003FA86
:100D30000CF322401A43120101EB0E0383F8002347
:100D400000E080310078012300F01F0203FA02F274
:100D5000C0F3421041F8202010BD000040F0806038
:100D60004EF60C5140F0FD70CEF200010860704765
:100D700070470000002941F21C01C4F202010A6818
:100D80000CBF22EA0000104308607047002941F2BE
:100D90001801C4F202010A680CBF22EA00001043E5
:100DA0000860704710B541F20404C4F202042268DE
:100DB00002F00C02082A41F20022C0F27A0212D19B
:100DC0002368D4F800C0C3F3834E5FEACC330EF13E
:100DD000020C02D523689B0303D540F60012C0F233
:100DE0003D020CFB02F20260226846F61473C2F365
:100DF0000312C0F600039A5C0168D140416022688A
:100E0000C2F302229A5C21FA02F282602268C2F3E3
:100E1000C2229A5C46F61073D140C1602268C0F6C7
:100E20000003C2F381329A5CB1FBF2F1016110BDA3
:100E30000288002918BF012122F0400242EA8111F4
:100E4000018070470089084018BF012070470000EA
:100E500080897047818170472DE9F04102880B88B5
:100E600002F4415C4A88B1F804E043EA0C03CC8800
:100E70001A430D8942EA0E024E8922438F892A4382
:100E8000B1F80E8032433A4342EA08020280828B74
:100E900022F400628283098A0182BDE8F0810000A9
:100EA0007047000040F27000C2F20000016840F29A
:100EB000B9020139016040F28801C2F200010B88D9
:100EC000C2F20002012010705A1C93B20B2B0A8050
:100ED00006D300220A8040F2B801C2F20001087075
:100EE00040F28601C2F200010888013082B2B2F5F8
:100EF0007A7F08801BD940F28A02C2F20002108871
:100F00004FF0000C40F2BA03A1F800C0C2F2000397
:100F100001210130197083B28342108018BF7047DD
:100F200040F23410C2F20000A2F800C00170704715
:100F300082B041F20400C4F2020050F8041C002206
:100F400041F0010140F8041C0168CFF6FF02114096
:100F5000016050F8041C4FF6FF72CFF6F6621140A4
:100F600040F8041C50F8041C21F4802140F8041CB3
:100F7000016821F4FE0101604FF41F01416000216E
:100F80000191009150F8041C41F4803140F8041C98
:100F900050F8041C01F400310091019901310191D4
:100FA000009919B90199B1F5A06FF1D150F8041C5D
:100FB000C1F3404100910099012936D142F200016C
:100FC000C4F202010A6842F010020A600A6822F0C4
:100FD00003020A600A6842F002020A6001680160C6
:100FE00001680160016841F480610160016821F4D9
:100FF0007C110160016841F4E811016050F8041CA3
:1010000041F0807140F8041C50F8041C8901FBD5A4
:10101000016821F003010160016841F002010160F3
:10102000016801F00C010829FAD14EF60850CEF201
:1010300000004FF00061016002B070470288002993
:1010400018BF012122F0800242EAC11101807047DD
:1010500080B54FF0010CB0F820E00CFA01F32EEA55
:1010600003030384038C02FA01F11943018480BD58
:101070000288002918BF012122F0010211440180D9
:1010800070470000B0F84420002918BF01216FF319
:10109000DF3242EAC131A0F844107047B0B5028C8B
:1010A00022F001020284038C8288B0F818C00C89F7
:1010B00023F002032343A0F180444D88A4F5963425
:1010C000B1F800E04FEAB424072C43EA050313D833
:1010D000012505FA04F414F0E50F0DD04C8923F036
:1010E0000C0324F004048D8823438C892B4322F4C1
:1010F0004072CD8922432A432CF0730545EA0E0540
:1011000082800583C98881860384B0BD028B22F06A
:101110000802114301837047B0B5028C22F010021F
:101120000284038C8288B0F818E00C894D88B1F8ED
:1011300000C02C4343F2004523F02003C4F2010514
:10114000A84243EA041305D042F60044C4F2010465
:10115000A04211D14C896FF0400523F0C00305EA8D
:1011600004148D88234343EA05138C89CD8922F426
:1011700040622C4342EA84022EF4E64545EA0C25FF
:1011800082800583C98801870384B0BD028B22F465
:10119000006242EA0121018370470000B0B5028C71
:1011A00022F480720284038C8288B0F81CE00C89DF
:1011B0004D88B1F800C02C4343F2004523F400737E
:1011C000C4F20105A84243EA042305D042F60044D4
:1011D000C4F20104A04211D14C8940F2FF4524021F
:1011E00023F44063AC438D88234343EA05238C8971
:1011F000CD8922F440522C4342EA04122EF07305AA
:1012000045EA0C0582808583C98881870384B0BD47
:10121000828B22F0080211438183704770B5028CE3
:1012200043F2004622F480520284038C8288B0F894
:101230001CE0B1F800C00C894D88C4F20106B04230
:1012400005D042F60046C4F20106B04204D18E89B0
:1012500022F4804242EA86122EF4E64646EA0C2642
:101260008280868323F400532C43C98843EA0432E6
:10127000A0F84010028470BD828B22F4006242EA22
:101280000121818370470000818670470187704784
:101290008187704740F6FF33B0F800C0C4F2000306
:1012A00098420FDCB0F1804F1ED040F20043C4F2F0
:1012B0000003984218D040F60003C4F2000398429D
:1012C00012D016E040F60043C4F2000398420BD05F
:1012D00043F20043C4F20103984205D042F60043B2
:1012E000C4F20103984204D14B882CF0700243EA07
:1012F000020C41F2004240F48063C4F200029342C7
:1013000004D0CA882CF4407342EA030CA0F800C051
:101310008A888285A0F18042A2F596320B884FEA36
:10132000B222072A038507D8012303FA02F212F03A
:10133000E50F1CBF097A01860121818270470000F8
:101340008289002918BF012122F4005242EA41316A
:10135000818170470088084018BF01207047000055
:10136000C1F3421301F01F0C1421022B08BF1021FE
:10137000012B4FF0010308BF0C21002A03FA0CF2E5
:1013800043580CBF23EA02021A4342507047000040
:1013900070B586B00446008A0D46C98820F44050D6
:1013A00008432082A0894EF6F3110840A9882A89B3
:1013B0006B89084310431843A081A08AA98920F4AF
:1013C0004070084301AEA0823046FFF7EBFC43F6C5
:1013D000000106F10800C4F201018C4208BF06F1C9
:1013E0000C0000681922B4F90C1050432A6801233C
:1013F000B1F1FF3FC8BF022302FA03F1B0FBF1F0E5
:1014000048F21F51C5F2EB11A0FB01235A096FF0FE
:10141000630302FB0300B4F90C300326B3F1FF3F72
:10142000C8BF042600FA06F000F13200A0FB01015B
:101430004FF00700C8BF0F2000EA511040EA021029
:10144000208106B070BD00006FF35F21818070477E
:10145000FEE700002DE9F04186B008200121FFF7EA
:1014600095FC01200121FFF791FC042001214FF0A0
:101470000408FFF7EDFB4FF480400121FFF786FCE5
:1014800043F600044020C4F20104C1F60300A4F5B1
:10149000305504AE049028463146FFF77BFB082008
:1014A000C1F20300A4F50057049038463146FFF717
:1014B00071FB38460821FFF713FC04200121FFF7D8
:1014C00065FC4FF40070A4F54057ADF810003846A5
:1014D0003146FFF75FFB38464FF40071FFF700FC21
:1014E0008020ADF81000284631468DF81380FFF7B4
:1014F00051FB4FF4E130009000204FF44021019067
:101500000291ADF80C0069462046FFF741FF4FF409
:10151000A060FFF723FC40F22510C0F201100590F7
:1015200005A8FFF7EBFB204640F225510122FFF70B
:1015300017FF20460121FFF703FF06B0BDE8F08149
:1015400080B5A02001F0CAFB18B102F081FF002095
:1015500080BD012080BD00002DE9F04F83B007461B
:101560000C980E46032198469146A1EB430AA8B376
:10157000B8F1000F56D400244FF0FF3B0EE000BF3F
:10158000A4EB080001EB800000F10A0AA8F10108B1
:10159000444504F101040BF1010B43DA2046CDF878
:1015A00008A0A045C8BF40466FEA000A5D4600BFDC
:1015B00001353846314622462B46CDF8009001F0E1
:1015C00027FA0AEB05000130F2D10299B1F1FF3F91
:1015D000D6DC01EB840000F1060AD9E7B8F1000F70
:1015E00020D400254FF0FF3B06240CE0A5EB0800BB
:1015F0000AEB800000F10A0AA8F101080135C34591
:1016000004F104040EDA0BF1010B384631465A4658
:101610004346CDF8009001F0FBF9BAF1FF3FE5DC5D
:10162000A244EBE703B0BDE8F08F00002DE9F041E4
:1016300040F60044C4F201044FF0000804F5806550
:1016400020460421002248F0B0060027FFF74AFB9D
:1016500028464FF400510022FFF744FBF0B200F09F
:1016600079FD28464FF400510122FFF73BFB20464D
:1016700004210122FFF736FB204604210022FFF758
:1016800031FB28464FF400510022FFF72BFB0020CE
:1016900000F060FD28464FF400510122FFF722FBC5
:1016A000204604210122FFF71DFB204604210022D1
:1016B000FFF718FB28464FF400510022FFF712FBFA
:1016C000102000F047FD28464FF400510122FFF79B
:1016D00009FB204604210122FFF704FB20460421D8
:1016E0000122FFF7FFFA28464FF400510022FFF7CE
:1016F000F9FA002000F02EFD28464FF40051012297
:10170000FFF7F0FA204604210122FFF7EBFA781CDC
:1017100047B2B7F1FF3FE1DCB8F1070F08F101086C
:1017200028BFBDE8F0818BE770B586B045F20004B4
:1017300030200121C4F20004FFF728FB4FF4801091
:101740000121FFF717FB41F20000C1F6030005ADD0
:10175000059004F540402946FFF71CFA0420ADF837
:1017600014008DF8170004F544402946FFF712FADB
:101770004FF4165001904FF4402001AD0026039025
:10178000204629460296ADF81060FFF701FE20467C
:101790000121FFF7D5FDAA20019040F21310ADF80A
:1017A0000860ADF805001E208DF80700DC208DF8DC
:1017B000080000BFA95D204601F01EF90136052E84
:1017C000F8D106B070BD0000002B08BF70472DE9AE
:1017D000F04F85B007460E981C4692468946591E22
:1017E00045084FF0000B4FF0000804911EE000BFC9
:1017F0004FF0010840F0300040F2240240F218039C
:10180000C0B20BFB0571C2F20002C2F200030090ED
:101810000E9812881B88019088B2494600260296CD
:1018200000F00AFA0BF1010BA34535D06FEA0B006B
:101830002044010608D00121013801EB8101020694
:101840004FEA4101F8D100E00121BAFBF1F04CF67A
:10185000CD41CCF6CC41A0FB0112D10801EB8101B6
:10186000B8F1000FA0EB4100C4D104995945C1DD86
:101870000028BDD140F22401C2F200010A8840F2E2
:101880001801C2F200010B8820210BFB05700091AA
:101890000E9980B20191C0E705B0BDE8F04F7047E6
:1018A00070B543F20045C4F20105044686B2C1B2E8
:1018B0002846FFF7E9FCC4F307412846FFF7E6FC9A
:1018C000310A2846BDE87040FFF7E2BC2DE9F0413F
:1018D00084B041F200058046C4F201056FF00104B6
:1018E0000DF1060728464FF400410022FFF7FAF9F0
:1018F000404600F02FFC062001F000FE00F0DCFA6C
:10190000064600F0D9FA40EA0620060928464FF4B8
:1019100000410122FFF7E6F938190234082C46800D
:10192000E0D10120002100BF024600BF37F811308E
:1019300037F81260B34284BF27F8116027F81230DD
:101940000132052AF2D10131042900F10100EBD165
:1019500000206FF0010100BF7A189288023104293B
:101960001044F9D180B24AF6AB214843400C04B090
:10197000BDE8F0812DE9F04F81B081464FF447700A
:10198000884600F087FA43F20004C4F20104A08BF9
:101990004FF0070B20F40060A08320460021A4F83C
:1019A00010B0FFF745FA20460121FFF741FA40F257
:1019B0001A05C2F200052878FFF788FF40F21B07DE
:1019C000C2F20007397806460846FFF77FFF8246D5
:1019D0004FF4417000F05EFAA08B002120F400600B
:1019E000A0832046A4F810B0FFF722FA2046012178
:1019F000FFF71EFA4FF4477000F04CFAA08B00215D
:101A000020F40060A0832046A4F810B0FFF710FA7D
:101A100020460121FFF70CFA2878FFF757FF3978A5
:101A200005460846FFF752FF07464FF4417000F0A5
:101A300031FAA08B002120F40060A0832046A4F896
:101A400010B0FFF7F5F920460121FFF7F1F9B54293
:101A500003D805F13200B04207D8AE424FF0000083
:101A60001BD806F13201A94217D9574503D807F10F
:101A70003200504507D8BA454FF000000DD80AF1A2
:101A80003201B94209D9A8194008A9F8000007EBAA
:101A90000A004008A8F80000012001B0BDE8F08F5E
:101AA000B0B540F60044C4F2010420464FF4006192
:101AB000FFF716F920464FF48061FFF711F9204631
:101AC0004FF40061FFF704F90546002820464FF463
:101AD000806118BF0125FFF701F92846B0BD00005D
:101AE000F0B581B040F60044C4F201040546A1F10E
:101AF0005007204604210022FFF7F4F804F5806621
:101B000030464FF400510022FFF7ECF8F8B200F035
:101B100021FB30464FF400510122FFF7E3F8204645
:101B200004210122FFF7DEF8280900F11007204602
:101B300004210022FFF7D6F830464FF4005100226E
:101B4000FFF7D0F8384600F005FB30464FF400515F
:101B50000122FFF7C7F8204604210122FFF7C2F84F
:101B6000204604210022FFF7BDF830464FF4005113
:101B70000022FFF7B7F805F00F0000F0EBFA30464F
:101B80004FF400510122FFF7ADF820460421012255
:101B900001B0BDE8F040FFF7A5B800002DE9F04F17
:101BA00083B005460C46111AB2EB050B18BF4FF077
:101BB000FF3B00290E4648BF4E420129A3EB04001B
:101BC0004FF00107A8BFBB46191B18BF4FF0FF31EC
:101BD0000028029044BF434202930128B8BF0F4639
:101BE00002984FF0000A864288BF304601900130CB
:101BF0004FF000094FF00008009000BFA8B2A1B25A
:101C000000F074FA0299019B09EB06005144B0EB15
:101C10000309D4BF81465D44B1EB030AD4BF8A46B1
:101C20003C4408F1010800991FFA88F08142E5D28E
:101C300003B0BDE8F08F00002DE9F04F85B040F211
:101C4000240BC2F2000B8C460646DDE90E0ABBF8F7
:101C50000010DDF840900091A0F1200806EB5A003A
:101C60000CEB0A01013801391F46144682B28BB2CF
:101C7000304661464FEA5A05CDF80CC000F0E8FC4A
:101C8000B9F1000FCDF810A045D0BAF1000F7AD00D
:101C90005FFA88F047F2546200EB4001C0F60002A0
:101CA00002EB8101029147F6C821C0F6000101EB69
:101CB0000010019004984FF0000904E0049809F125
:101CC000010981455FD00128F8D001980499484462
:101CD0000C29029908BF01EB090090F800800398D5
:101CE0004FF0000A00EB090100208FB208E000BFAE
:101CF0000AF1010A4FEA5808AA455FFA8AF0DDD2D4
:101D00005FEAC871ABF80040F2D0304480B2394687
:101D100000F0ECF9ECE7BAF1000F34D05FFA88F08C
:101D200047F2546200EB4001C0F6000202EB810171
:101D3000039147F6C821C0F6000101EB0019049891
:101D40004FF0000A05E000BF04980AF1010A82453D
:101D500019D00128F8D0049909EB0A000C2903993D
:101D600008BF01EB0A0006784FF00008F007204694
:101D700008BF384601F066FB08F1010845454FEA07
:101D80005606F3D8E0E740F2BC00C2F2000001883A
:101D90004088009F013901388AB283B200200021B7
:101DA000ABF8007005B0BDE8F04F00F051BC00008A
:101DB00040F22800C2F20000006844F6D351C1F29C
:101DC0006201A0FB01014FF0FF3000EB91104EF2D9
:101DD0001001CEF2000148604EF62350CEF2000012
:101DE000F022027000208860072008607047000021
:101DF00070B586B020200121FEF7C8FF0120012127
:101E0000FEF7C4FF08200121FEF722FF4FF4003047
:101E10000121FEF7AFFF44F200442020C4F2000489
:101E2000C1F6030004F5504504AE0490284631463F
:101E3000FEF7B0FE4020ADF8100004208DF813002E
:101E400028463146FEF7A6FE4FF4E1300090002010
:101E50004FF4402101900291ADF80C0069462046F4
:101E6000FFF796FA4FF4A060FEF778FF40F22610D5
:101E7000C0F20110059005A8FEF740FF204640F291
:101E800025510122FFF76CFA20460121FFF758FA8D
:101E900006B070BD43F20001C4F201010A8802F4E9
:101EA000415210430880088820F0400008800888CC
:101EB00040F0400008807047B0B543F2000440F2A3
:101EC0002C05C4F20104C2F200054FF480502860D2
:101ED00020460221FEF7B6FF70B92868411E00288F
:101EE0002960F5D148F2F870C0F600000021002406
:101EF00004F0D0FAE0B2B0BD20460021FEF7AAFF00
:101F00004FF48050286000BF20460121FEF79AFF61
:101F100070B92868411E00282960F5D148F2F87090
:101F2000C0F60000012104F0B5FA0024E0B2B0BD13
:101F30002046FEF78DFFC0B2B0BD000080B508207E
:101F400004F0C2F9BDE8804003F0EEBF70B514465E
:101F50000E46054603F070F9A02000F049F8FFF79F
:101F60009FFD68B9F0B200F043F8FFF799FD38B96A
:101F700003F062F9A12000F03BF8FFF791FD20B1DA
:101F8000002402F065FA204670BD3CB90124F8E750
:101F900002F048FA013C05F10105F7D000F006F81F
:101FA000012C2870F4D001F005FCF3E770B540F681
:101FB00000440025C4F20104002600BF20464FF46F
:101FC0008061FEF78DFE20464FF40061FEF780FE33
:101FD000002818BF012040EA450520464FF48061E3
:101FE000FEF77CFE072E06F10106E7D3E8B270BDCE
:101FF00070B540F6004504460026C4F2010505E030
:102000006400072E06F1010628BF70BD60B2B0F172
:10201000FF3F05DD28464FF40061FEF75FFE04E058
:1020200028464FF40061FEF75BFE28464FF48061BE
:10203000FEF756FE28464FF48061FEF74FFE072E4E
:10204000DED128464FF40061FEF74AFED8E70000D3
:10205000002B08BF70472DE9F04F81B007460A9862
:102060001C4691468A46A3F10108450800264FF018
:10207000000B0DE04FF0010B05FB067140F0300244
:10208000C8B2D2B2514600F0E7F80136A64228D0D5
:10209000F0432044010609D0012100BF013801EBC3
:1020A000810102064FEA4101F8D100E00121B9FBAC
:1020B000F1F04CF6CD41CCF6CC41A0FB0112D10899
:1020C00001EB8101BBF1000FA0EB4100D4D1B04581
:1020D000D2DD0028CED105FB06705146C0B23022B9
:1020E000D1E701B0BDE8F04F70470000B0B502463F
:1020F0000B4600F0ADFA40F2240041F20044C2F277
:102100000000C4F201040588A4F500600421012246
:10211000FEF7E8FD20464FF480510022FEF7E2FD75
:10212000F82000EA152000F015F8FC2000EAD500A0
:1021300000F010F8E800C0B200F00CF820464FF4B0
:1021400080510122BDE8B040FEF7CCBD02460B46EF
:1021500000F07EBA70B543F2000440F22C0605464A
:10216000C4F20104C2F200064FF48050306000BF98
:1021700020460221FEF766FE70B93068411E002835
:102180003160F5D148F2F870C0F60000002100245B
:1021900004F080F9E0B270BD20462946FEF75AFEF1
:1021A0004FF48050306000BF20460121FEF74AFE08
:1021B00070B93068411E00283160F5D148F2F870DE
:1021C000C0F60000012104F065F90024E0B270BD02
:1021D0002046FEF73DFEC0B270BD00002DE9F04381
:1021E00081B082B391460D468046002740F2E73623
:1021F000002F18BF15F00F0019D102F029F90024A3
:1022000003F01AF8A020FFF7F3FEFFF749FC28B10E
:10221000B44204F10104F3D34FF47A74B4F57A7F35
:1022200013D0E8B2FFF7E4FEFFF73AFC68B918F8FC
:102230000700FFF7DDFEFFF733FC30B901374F45EC
:1022400005F10105D4D1012400E0002402F000F9D9
:10225000204601B0BDE8F0832DE9F04743B2C0F35A
:10226000C01001EB400923EAE37840F6004A5FFA28
:1022700089F14046C4F2010AA2F12004FFF730FCC4
:1022800046F62471E0B2C0F6000101EB00164FF0F3
:10229000FF340AF5806500BF3019477850460421A5
:1022A0000122FEF71FFD28464FF400510022FEF7E1
:1022B00019FD3846FFF74EFF28464FF40051012222
:1022C000FEF710FD504604210122FEF70BFD0134FC
:1022D000072CE1D109F101015FFA88F0C9B2FFF7DB
:1022E000FFFBF71D082400BF17F8016F50460421BB
:1022F0000122FEF7F7FC28464FF400510022FEF7BA
:10230000F1FC3046FFF726FF28464FF4005101222A
:10231000FEF7E8FC504604210122FEF7E3FC013CF5
:10232000E2D1BDE8F08700002DE9F04F83B00293C1
:102330000E468146DDE90C3448F6AB011546002017
:10234000C0F600014F46009309E000BF0198009BD2
:10235000013048F6AB016428C0F6000154D001906A
:1023600000EBC00011F820C01A789445EED101EBC3
:10237000800898F8010059788842E7D198F802005F
:1023800099788842E2D107F10F0206F10F03B8B243
:10239000B1B292B29BB200F05BF908F1040A4FF0BF
:1023A000000B06E001364F460BF1010BBBF1200F8D
:1023B000CCD04FF000080FE01AF80B00029900FA99
:1023C00008F00006284658BF084601F03BF808F11F
:1023D0000108B8F1080FE7D0002CEDD01AF80B0077
:1023E00000FA08F0000640F22400C2F20000058066
:1023F00003D5B8B2B1B2FFF779FE0137B8B2A0EB9E
:1024000009001028E3D1CDE740F2BC00C2F2000081
:1024100001884088013901388AB283B20020002146
:1024200003B0BDE8F04F00F013B900002DE9F04F04
:1024300083B0029315468146DDE90CC449F2BB62C4
:102440000E460023C0F600024C204F46CDF800C0D7
:102450000CE000BF019BDDF800C0013349F2BB6214
:10246000642BC0F600024FF04C0057D05843105C6C
:102470009CF8001001938842ECD14C2003FB00280B
:102480009CF8011098F801008842E3D198F8020006
:102490009CF802108842DDD107F1170206F11703FC
:1024A000B8B2B1B292B29BB200F0D2F808F1040A0D
:1024B0004FF0000B07E000BF01364F460BF1010B58
:1024C000BBF1480FC6D04FF000080FE01AF80B0020
:1024D000029900FA08F00006284658BF084600F0A6
:1024E000B1FF08F10108B8F1080FE7D0002CEDD0DA
:1024F0001AF80B0000FA08F0000640F22400C2F2BD
:102500000000058003D5B8B2B1B2FFF7EFFD013787
:10251000B8B2A0EB09001828E3D1CDE740F2BC0027
:10252000C2F2000001884088013901388AB283B2C2
:102530000020002103B0BDE8F04F00F089B8000092
:102540002DE9F04F83B002930E468146DDE90C344D
:102550004BF26B4115460020C0F600014F46009338
:1025600009E000BF0198009B01304BF26B416428E9
:10257000C0F600015AD0019000EB401011F820C0C5
:102580001A789445EED101EB800898F8010059784B
:102590008842E7D198F8020099788842E2D198F809
:1025A0000300D9788842DDD107F11F0206F11F032D
:1025B000B8B2B1B292B29BB200F04AF808F1040A84
:1025C0004FF0000B07E000BF01364F460BF1010B47
:1025D000BBF1800FC6D04FF000080FE01AF80B00D7
:1025E000029900FA08F00006284658BF084600F095
:1025F00029FF08F10108B8F1080FE7D0002CEDD051
:102600001AF80B0000FA08F0000640F22400C2F2AB
:102610000000058003D5B8B2B1B2FFF767FD0137FE
:10262000B8B2A0EB09002028E3D1CDE740F2BC000E
:10263000C2F2000001884088013901388AB283B2B1
:102640000020002103B0BDE8F04F00F001B8000009
:102650002DE9F04F81B041F2004440F2BC0BC4F2CE
:102660000104C2F2000BA4F50065924689460746B4
:102670009BF80A602846042100229846FEF732FBA8
:1026800020464FF480510022FEF72CFB3046FFF726
:1026900061FD20464FF480510122FEF723FB2846BE
:1026A000042101223E0AFEF71DFB20464FF4805113
:1026B0000022FEF717FB3046FFF74CFD20464FF493
:1026C00080510122FEF70EFB284604210122FEF76D
:1026D00009FB20464FF480510022FEF703FBF8B2BD
:1026E000FFF738FD20464FF480510122FEF7FAFA39
:1026F0002846042101224FEA1A26FEF7F3FA204663
:102700004FF480510022FEF7EDFA3046FFF722FD2C
:1027100020464FF480510122FEF7E4FA28460421B6
:102720000122FEF7DFFA20464FF480510022FEF727
:10273000D9FA5FFA8AF0FFF70DFD20464FF4805179
:102740000122FEF7CFFA9BF80C60284604210022F4
:10275000FEF7C8FA20464FF480510022FEF7C2FA75
:102760003046FFF7F7FC20464FF480510122FEF778
:10277000B9FA2846042101224FEA1926FEF7B2FAD7
:1027800020464FF480510022FEF7ACFA3046FFF7A6
:10279000E1FC20464FF480510122FEF7A3FA2846BF
:1027A00004210122FEF79EFA20464FF480510022B8
:1027B000FEF798FA5FFA89F0FFF7CCFC20464FF459
:1027C00080510122FEF78EFA2846042101224FEAA9
:1027D0001826FEF787FA20464FF480510022FEF7B4
:1027E00081FA3046FFF7B6FC20464FF480510122B3
:1027F000FEF778FA284604210122FEF773FA2046F4
:102800004FF480510022FEF76DFA5FFA88F0FFF76F
:10281000A1FC20464FF480510122FEF763FA9BF899
:102820000860284604210022FEF75CFA20464FF497
:1028300080510022FEF756FA3046FFF78BFC204607
:102840004FF48051012201B0BDE8F04FFEF74ABAC3
:102850002DE9F04F83B01C780D46A4F12001C9B2D8
:102860005E2936D840F2BC0AC2F2000A0646BAF81F
:102870000000B0422DD9BAF80200A84229D940F28E
:10288000180990464FEA520B5F1EC2F2000900BFC2
:1028900040F22400C2F200000288B9F80030E0B231
:1028A0000C9CCDE90008B0B229460294FFF7C4F9A8
:1028B000BC78A4F12000C0B25E280AD85E44BAF801
:1028C0000000B1B2884204D9BAF802000137A84228
:1028D000DED803B0BDE8F08FF0B583B00DF107008E
:1028E000FF210122FFF732FB9DF8070000240A2890
:1028F00040F07F8002AD0026C6F1F5012846012296
:10290000FFF724FB9DF80800032E40EA042406F19B
:102910000106F1D32046FDF7BAFD4BF62041C4F67F
:10292000BE41FDF7B2FC40F24406C2F200060024AC
:102930000DF109050027B061C7F1F9012846012210
:10294000FFF704FB9DF80900032F40EA042407F178
:102950000107F1D32046FDF79AFD4BF62041C4F65E
:10296000BE41FDF792FC00250DF10A040027F0613D
:10297000C7F1FB0120460122FFF7E8FA9DF80A00A3
:10298000002F40EA052507F10107F1D03584002525
:102990000DF10B04002700BFC7F1FD012046012205
:1029A000FFF7D4FA9DF80B00002F40EA052507F148
:1029B0000107F1D006F12400FE21012275840124D3
:1029C000FFF7C4FA96F824006FF06F0140F21A0284
:1029D000002808BF6FF02F016FF02F00C2F2000235
:1029E00008BF6FF06F00117040F21B01C2F20001CE
:1029F0000870204603B0F0BD10B50446FEF724FD74
:102A000020468021FEF7A6FC0028F9D010BD00006A
:102A10002DE9F04F81B0894683461044194486B2AF
:102A20008FB20A9C304639469A469046FFF78EFB95
:102A3000204600F007FDABEB080085B2284639467A
:102A4000FFF784FB204600F0FDFCA9EB0A0087B2EB
:102A500030463946FFF77AFB204600F0F3FC284663
:102A60003946FFF773FB204600F0ECFC0AEB0B0045
:102A700008EB090185B28EB228463146FFF766FBA6
:102A8000204600F0DFFCABEB0A0087B23846314647
:102A9000FFF75CFB204600F0D5FCA9EB080086B2EE
:102AA00028463146FFF752FB204600F0CBFC384663
:102AB0003146FFF74BFB204601B0BDE8F04F00F078
:102AC000C1BC0000B0B586B001200121FEF75EF95F
:102AD00040F20020C0F230000121FEF7B9F80120D9
:102AE0000121FEF7B5F84FF480500121FEF74EF9B1
:102AF00008200121FEF74AF9082040F60044C1F6FB
:102B00000300C4F2010405AD059020462946FEF7F6
:102B100041F82020ADF8140020462946FEF73AF887
:102B20001020ADF8140048208DF8170020462946E3
:102B3000FEF730F84FF08270CDF802000020CDF89B
:102B400006004FF00071CDF80E00072004F5105478
:102B5000CDF80A10ADF812000DF102012046FEF783
:102B60007BF920460121FEF763F906B0B0BD0000F5
:102B7000B0B582B010200121FEF708F9802041F2A3
:102B80000004C1F20200C4F2010401AD019020462C
:102B90002946FDF7FFFF4FF48070ADF80400204692
:102BA0002946FDF7F7FF4020ADF8040020462946EE
:102BB000FDF7F0FF20468021FEF792F820464FF403
:102BC0008071FEF78DF820464021FEF789F802B0AB
:102BD000B0BD00002DE9F04182B040F24408C2F2DD
:102BE0000008D8F818004BF62041C4F6BE41FDF7A6
:102BF0001AFBFDF767FC0446002701AD002600BF65
:102C000024FA07F08DF8040006F1F20081B228469C
:102C10000122FFF7E3FA0136042E07F10807EFD18E
:102C2000D8F81C004BF62041C4F6BE41FDF7FBFA74
:102C3000FDF748FC044600270DF10505002600BFFE
:102C400024FA07F08DF8050006F1F60081B2284657
:102C50000122FFF7C3FA0136042E07F10807EFD16E
:102C6000B8F9205000270DF10604002625FA07F0D8
:102C70008DF8060006F1FA0081B220460122FFF726
:102C8000ADFA0136022E07F10807EFD1B8F922504C
:102C900000270DF10704002625FA07F08DF807003C
:102CA00006F1FC0081B220460122FFF797FA0136B7
:102CB000022E07F10807EFD108F12400FE210122BE
:102CC000FFF78CFA0A208DF803000DF10300FF21B5
:102CD0000122FFF783FA02B0BDE8F08170B582B03F
:102CE000054640F6004408200121C4F20104FEF725
:102CF0004DF840F60040C1F20340019001A9204682
:102D0000FDF748FF20464FF40061FDF7E7FF20463E
:102D10004FF48061FDF7E4FF20464FF40061FDF7BA
:102D2000DFFF20464FF40061FDF7DAFF20464FF445
:102D30008061FDF7D5FF20464FF40061FDF7CEFF1F
:102D400020464FF48061FDF7C9FF002605E000BF73
:102D50006D00072E06F1010621D268B2B0F1FF3FE7
:102D600006DD20464FF40061FDF7B8FF05E000BF27
:102D700020464FF40061FDF7B3FF20464FF4806119
:102D8000FDF7AEFF20464FF48061FDF7A7FF072E49
:102D9000DED120464FF40061FDF7A2FFD8E72046C0
:102DA0004FF40061FDF79CFF20464FF48061FDF772
:102DB00097FF20464FF40061FDF78AFF0546002883
:102DC00020464FF4806118BF0125FDF787FF20469C
:102DD0004FF40061FDF782FF20464FF48061FDF75C
:102DE0007FFF20464FF40061FDF77AFF284602B0CE
:102DF00070BD00002DE9F04F85B014461278002A0E
:102E000000F0B280824648F2BC60C0F6000040F696
:102E1000004790F800808946C4F201070020CDE900
:102E2000018012E0FFF718FA01207821082292446D
:102E30005FFA8AF28A4284BF4FF0000A09F1020960
:102E4000225C0444002A00F08F8050B200285FFA10
:102E50008AF05FFA89F1D2B2E4D5B8F1000FCDE97A
:102E600003941ED048F2B80684466078A378C0F672
:102E70000006751C002604E00136B04505F11C056E
:102E80000ED015F8014CA242F6D12C78A042F3D115
:102E90006C78A342F0D1AC78002CEDD1F0B2029066
:102EA00060460546FEF71CFE029848F2B801C0EBEA
:102EB000C000C0F6000101EB800808F104094FF0E2
:102EC000FF3B00BF09EB0B00447838460421012288
:102ED000FDF708FF07F5806630464FF400510022E9
:102EE000FDF700FF2046FFF735F930464FF400515B
:102EF0000122FDF7F7FE384604210122FDF7F2FE1C
:102F00000BF1010BBBF10B0FDCD1DDF80C9009F1DB
:102F10000100C1B22846FEF7E3FD0F2508EB0500CE
:102F20004478384604210122FDF7DCFE30464FF498
:102F300000510022FDF7D6FE2046FFF70BF9304680
:102F40004FF400510122FDF7CDFE38460421012245
:102F5000FDF7C8FE01351B2DE0D1049CDDF804808F
:102F6000032074210C2262E705B0BDE8F08F000059
:102F7000B0B582B060200121FDF708FF4FF6026076
:102F800041F60004C1F20300C4F2010401AD019056
:102F900020462946FDF7FEFD0220ADF80400A4F509
:102FA00080602946FDF7F6FD20460221FDF796FEDA
:102FB00020464FF48061FDF791FE02B0B0BD0000E5
:102FC000B0B588B010200121FDF7E0FE40F2C0103E
:102FD00043F20044C1F60300C4F20104CDF8060038
:102FE000A4F510500DF10601FDF7D4FD4FF400508B
:102FF0000121FDF7CBFE40F22800C2F2000000687C
:1030000045F6C5214009C0F67C21A0FB01014FF027
:10301000FF3000EBD110ADF8160000204FF47E0118
:10302000ADF81C0006918DF81E000DF1160120462A
:10303000FEF730F96020C0F20100CDF806004FF431
:103040008020CDF80A000220ADF80E004FF4807009
:103050000DF10605ADF8120020462946FEF71EF8D0
:1030600020460821FEF752F820462946FEF754F87C
:1030700020460821FEF78AF820462946FEF78EF8FA
:1030800020460821FEF7C4F820460121FDF7D6FFAF
:1030900020460121FDF7ECFF20460121FDF7F2FF5C
:1030A00008B0B0BD70B588B020200121FDF76EFEDC
:1030B00040F6000442F20000C4F20004C1F2030032
:1030C00004F586350DF10606CDF806002846314692
:1030D000FDF760FD28464FF40051FDF7FFFD20206D
:1030E0000121FDF753FE44F20000C1F20300CDF8C8
:1030F000060028463146FDF74DFD28464FF4804135
:10310000FDF7ECFD20200121FDF740FE48F2000014
:10311000C1F60300CDF8060028463146FDF73AFD1A
:1031200001200121FDF732FE4FF480500121FDF70F
:103130008FFD04200121FDF71DFE4720ADF816008C
:1031400000204FF47F01ADF81C0006918DF81E00A1
:103150000DF116012046FEF79DF86020C0F2010037
:103160000DF10605CDF80600C8262046294603962F
:10317000FDF7D2FF20460821FEF708F82046294631
:10318000ADF80C60FEF70AF820460821FEF740F87B
:103190007D20ADF80C0020462946FEF73FF820467A
:1031A0000821FEF769F820460121FDF747FF204678
:1031B0000121FDF75DFF204604210022FDF748FFB5
:1031C000204608210022FDF743FF20460C21002263
:1031D000FDF73EFF08B070BD81B0009040F22800BE
:1031E000C2F20000006844F6D351C1F26201A0FBB4
:1031F00001014EF210004FF0FF32CEF2000002EB60
:10320000911141604EF62351CEF20001F0220A7076
:103210000021816007210160009941B1002100BFB8
:103220000268D203FCD5009A01319142F8D30168BB
:1032300021F00101016001B0704700002DE9F04F5D
:1032400081B0804640F224000F46C2F200004FF4E5
:1032500078411D461646DDE90A4B01804FF0010A10
:103260004CA32820A0211022CDF800A04FF0100977
:10327000FFF7EEFA48A37820A0211022CDF800A095
:10328000FFF7E6FA45A32820B4211022CDF800A0CC
:10329000FFF7DEFA42A37820B4211022CDF800A077
:1032A000FFF7D6FA3FA32820C8211022CDF800A0AE
:1032B000FFF7CEFA3CA37820C8211022CDF800A059
:1032C000FFF7C6FA39A32820DC211022CDF800A090
:1032D000FFF7BEFA36A37820DC211022CDF800A03B
:1032E000FFF7B6FA33A32820F0211022CDF800A072
:1032F000FFF7AEFA4020A02142460423CDF800900B
:10330000FEF762FA9020A0213A460423CDF80090FF
:10331000FEF75AFA4020B42132460423CDF800903B
:10332000FEF752FA9020B4212A460423CDF80090EB
:10333000FEF74AFA4020C82122460423CDF8009027
:10334000FEF742FA9020C8215A460423CDF8009097
:10335000FEF73AFA0C9A4020DC210423CDF80090C5
:10336000FEF732FA0D9A9020DC210423CDF800906C
:10337000FEF72AFA40F2BC00C2F2000001880E9A61
:1033800060200323CDF80090FEF71EFA01B0BDE8DF
:10339000F08F00BF78313A0079313A0078323A0044
:1033A00079323A0078333A0079333A0078343A0087
:1033B00079343A006661632069733A002DE9F0437D
:1033C00081B041F20049C4F20109A9F586350446ED
:1033D0004FF4804601284FF0040128464FF00002C8
:1033E00008BF4FF4005608BF0821FDF731FE4FF427
:1033F000005741F20300E846012C08BF4FF4804714
:10340000ADF8020048464146ADF80070FDF7C2FB3A
:1034100048463946FDF762FC41F60300ADF802006C
:1034200048464146ADF80060FDF7B4FB0821284648
:103430000122012C08BF0421FDF70AFE01B0BDE8FE
:10344000F0830000B0B541F20044C4F20104054627
:10345000A4F5006004210122FDF744FC20464FF44E
:1034600080510022FDF73EFCF82000EA1520FEF70F
:1034700071FEFC2000EAD500FEF76CFEE800C0B249
:10348000FEF768FE20464FF480510122BDE8B040AF
:10349000FDF728BCF0B581B0144612789AB10D46FC
:1034A00006460027F0B2E9B2D2B2FEF7D5FE0836E2
:1034B000F0B201377828F8B288BF0235225C88BFA5
:1034C0000026002AEED101B0F0BD0000B0B540F2F8
:1034D0007005C2F200050028286008BFB0BD04A432
:1034E000204603F0D1FC28680028F9D1B0BD00BF08
:1034F000546865205465737400000000002808BFFC
:10350000704781B00A2101E0013808D0009100BF66
:10351000009A002AF8D0009A013A0092F8E701B028
:10352000704700002DE9F04182B0502001210126B2
:10353000FDF72CFC48F2000043F20004C1F2030046
:10354000C4F2010401AD0190A4F500502946FDF735
:1035500021FB48208DF80700A4F5C0502946ADF89E
:103560000460FDF717FB4FF44770FEF793FC43F23E
:103570001C07C4F2010738884FF0070820F40060E8
:1035800038802046002127F80C8C0025FDF750FCE0
:1035900020460121FDF74CFC40F21A00C2F2000067
:1035A0000078FEF793F940F21B01C2F2000109789E
:1035B00006460846FEF78AF940F24401C2F20001CD
:1035C00048824FF441700E82FEF764FC3888002177
:1035D00020F400603880204627F80C8CFDF728FC8A
:1035E00020460121FDF724FC4FF6FF7000F09AFF02
:1035F000FFF772F970B94FF6FF7000F093FF00F01B
:10360000E7FFFFF7E7FA4FF47A70FFF75FFFFFF786
:1036100063F90125284602B0BDE8F081F0B581B01C
:10362000044641F60000C4F201000121FDF750FB01
:1036300040F24407C2F2000750B197F91400B0F10C
:10364000FF3F40DD00204FF0FF31C7E903013DE0BF
:1036500007F1100007F11201FEF78CF954BB48B3D3
:10366000388AFCF71DFFB7F9201005460846FCF71D
:103670000EFF0646D7E906042946FCF7D4FD31467D
:10368000FCF779FDFCF71EFF798A38820846FCF7C3
:1036900007FFB7F9221005460846FCF7F8FE064674
:1036A00020462946FCF7BFFD3146FCF764FDFCF7D8
:1036B00009FF788297F91400002807D43969C020DF
:1036C0003875F96002E000F07F003875387D00F051
:1036D000800001B0F0BD000070B50020FFF79EFF34
:1036E00040F24400C2F2000090F91410B1F1FF3F23
:1036F000C8BF70BD048A458A20462946FEF7F6FCFD
:10370000601C86B230462946FEF7F0FC681C85B284
:1037100020462946FEF7EAFC30462946BDE87040BF
:10372000FEF7E4BCF0B581B041F60004C4F2010438
:1037300020464FF40071FDF7D3FA40F28C05C2F237
:10374000000547F214562868C0F6000606F1A007E7
:103750003844007CFEF7FEFC2868385CFEF7FAFC73
:10376000286880363044007CFEF7F4FC2868305C22
:10377000FEF7F0FC20464FF40061FDF7AFFA20465B
:103780004FF40061FDF7ACFA2878E16821F470414C
:10379000E160E16841EA0030E06020464FF40071EA
:1037A000FDF79CFA2868411C0E28C8BF002129603B
:1037B00001B0F0BD10B540F60044C4F2010420464B
:1037C0004FF40061FDF78AFA20464FF48061FDF75F
:1037D00087FA20464FF48061FDF780FA20464FF4C7
:1037E0000061BDE81040FDF77BBA000070B582B003
:1037F00028200121FDF7CAFA41F2004440F20410EA
:10380000C4F20104C1F20300A4F5006501AE019009
:1038100028463146FDF7BEF941F21000ADF804002C
:1038200020463146FDF7B6F928464FF48071012253
:10383000FDF758FA284604210022FDF753FA2046E6
:103840004FF480510022FDF74DFAF720FEF782FC7D
:1038500020464FF480510122FDF744FA2846042106
:103860000122FDF73FFA20464FF480510022FDF778
:1038700039FAA920FEF76EFC20464FF48051012250
:10388000FDF730FA284604210122FDF72BFA2046E5
:103890004FF480510022FDF725FA5120FEF75AFC23
:1038A00020464FF480510122FDF71CFA28460421DE
:1038B0000122FDF717FA20464FF480510022FDF750
:1038C00011FA2C202C26FEF745FC20464FF480519F
:1038D0000122FDF707FA284604210122FDF702FA2A
:1038E00020464FF480510022FDF7FCF98220FEF7BC
:1038F00031FC20464FF480510122FDF7F3F92846B0
:1039000004210022FDF7EEF920464FF480510022F9
:10391000FDF7E8F9C020FEF71DFC20464FF480516A
:103920000122FDF7DFF9284604210122FDF7DAF92B
:1039300020464FF480510022FDF7D4F91120FEF704
:1039400009FC20464FF480510122FDF7CBF92846AF
:1039500004210122FDF7C6F920464FF480510022D0
:10396000FDF7C0F90920FEF7F5FB20464FF4805122
:103970000122FDF7B7F9284604210022FDF7B2F92C
:1039800020464FF480510022FDF7ACF9C120FEF72C
:10399000E1FB20464FF480510122FDF7A3F92846B0
:1039A00004210122FDF79EF920464FF480510022A8
:1039B000FDF798F94120FEF7CDFB20464FF48051EA
:1039C0000122FDF78FF9284604210022FDF78AF92C
:1039D00020464FF480510022FDF784F9C520FEF700
:1039E000B9FB20464FF480510122FDF77BF92846B0
:1039F00004210122FDF776F920464FF48051002280
:103A0000FDF770F90020FEF7A5FB20464FF480512A
:103A10000122FDF767F9284604210122FDF762F92A
:103A200020464FF480510022FDF75CF90A20FEF792
:103A300091FB20464FF480510122FDF753F92846AF
:103A400004210122FDF74EF920464FF48051002257
:103A5000FDF748F98020FEF77DFB20464FF48051AA
:103A60000122FDF73FF9284604210022FDF73AF92B
:103A700020464FF480510022FDF734F9B120FEF7C3
:103A800069FB20464FF480510122FDF72BF92846AF
:103A900004210122FDF726F920464FF4805100222F
:103AA000FDF720F9B020FEF755FB20464FF480517A
:103AB0000122FDF717F9284604210122FDF712F92A
:103AC00020464FF480510022FDF70CF91120FEF73B
:103AD00041FB20464FF480510122FDF703F92846AF
:103AE00004210022FDF7FEF820464FF48051002209
:103AF000FDF7F8F8B420FEF72DFB20464FF4805177
:103B00000122FDF7EFF8284604210122FDF7EAF82B
:103B100020464FF480510022FDF7E4F80220FEF722
:103B200019FB20464FF480510122FDF7DBF82846AF
:103B300004210022FDF7D6F820464FF480510022E0
:103B4000FDF7D0F8B620FEF705FB20464FF4805174
:103B50000122FDF7C7F8284604210122FDF7C2F82B
:103B600020464FF480510022FDF7BCF80220FEF7FA
:103B7000F1FA20464FF480510122FDF7B3F82846B0
:103B800004210122FDF7AEF820464FF480510022B7
:103B9000FDF7A8F84220FEF7DDFA20464FF48051E9
:103BA0000122FDF79FF8284604210022FDF79AF82C
:103BB00020464FF480510022FDF794F8B720FEF71D
:103BC000C9FA20464FF480510122FDF78BF82846B0
:103BD00004210122FDF786F820464FF4805100228F
:103BE000FDF780F8C620FEF7B5FA20464FF4805165
:103BF0000122FDF777F8284604210022FDF772F82C
:103C000020464FF480510022FDF76CF8BE20FEF7ED
:103C1000A1FA20464FF480510122FDF763F82846AF
:103C200004210122FDF75EF820464FF48051002266
:103C3000FDF758F80020FEF78DFA20464FF480512A
:103C40000122FDF74FF8284604210122FDF74AF82A
:103C500020464FF480510022FDF744F80420FEF77F
:103C600079FA20464FF480510122FDF73BF82846AF
:103C700004210022FDF736F820464FF4805100223F
:103C8000FDF730F8E920FEF765FA20464FF4805141
:103C90000122FDF727F8284604210122FDF722F82A
:103CA00020464FF480510022FDF71CF80020FEF75B
:103CB00051FA20464FF480510122FDF713F82846AF
:103CC00004210022FDF70EF820464FF48051002217
:103CD000FDF708F83620FEF73DFA20464FF48051F4
:103CE0000122FCF7FFFF284604210122FCF7FAFF1E
:103CF00020464FF480510022FCF7F4FF6820FEF7C5
:103D000029FA20464FF480510122FCF7EBFF2846A8
:103D100004210022FCF7E6FF20464FF480510022E8
:103D2000FCF7E0FF3A20FEF715FA20464FF48051E9
:103D30000122FCF7D7FF284604210122FCF7D2FF1D
:103D400020464FF480510022FCF7CCFF6620FEF79E
:103D500001FA20464FF480510122FCF7C3FF2846A8
:103D600004210022FCF7BEFF20464FF480510022C0
:103D7000FCF7B8FFE020FEF7EDF920464FF4805144
:103D80000122FCF7AFFF284604210122FCF7AAFF1D
:103D900020464FF480510022FCF7A4FF0020FEF7DC
:103DA000D9F920464FF480510122FCF79BFF2846A9
:103DB00004210122FCF796FF20464FF48051002297
:103DC000FCF790FF0720FEF7C5F920464FF480511D
:103DD0000122FCF787FF284604210122FCF782FF1D
:103DE00020464FF480510022FCF77CFF1020FEF7A4
:103DF000B1F920464FF480510122FCF773FF2846A9
:103E000004210122FCF76EFF20464FF4805100226E
:103E1000FCF768FF0920FEF79DF920464FF480511A
:103E20000122FCF75FFF284604210122FCF75AFF1C
:103E300020464FF480510022FCF754FF1720FEF774
:103E400089F920464FF480510122FCF74BFF2846A8
:103E500004210122FCF746FF20464FF48051002246
:103E6000FCF740FF0B20FEF775F920464FF4805118
:103E70000122FCF737FF284604210122FCF732FF1C
:103E800020464FF480510022FCF72CFF4120FEF722
:103E900061F920464FF480510122FCF723FF2846A8
:103EA00004210122FCF71EFF20464FF4805100221E
:103EB000FCF718FF8920FEF74DF920464FF480519A
:103EC0000122FCF70FFF284604210122FCF70AFF1C
:103ED00020464FF480510022FCF704FF4B20FEF7F0
:103EE00039F920464FF480510122FCF7FBFE2846A9
:103EF00004210122FCF7F6FE20464FF480510022F7
:103F0000FCF7F0FE0A20FEF725F920464FF4805119
:103F10000122FCF7E7FE284604210122FCF7E2FE1D
:103F200020464FF480510022FCF7DCFE0C20FEF707
:103F300011F920464FF480510122FCF7D3FE2846A8
:103F400004210122FCF7CEFE20464FF480510022CE
:103F5000FCF7C8FE0E20FEF7FDF820464FF4805116
:103F60000122FCF7BFFE284604210122FCF7BAFE1D
:103F700020464FF480510022FCF7B4FE1820FEF7D3
:103F8000E9F820464FF480510122FCF7ABFE2846A9
:103F900004210122FCF7A6FE20464FF480510022A6
:103FA000FCF7A0FE1B20FEF7D5F820464FF4805109
:103FB0000122FCF797FE284604210122FCF792FE1D
:103FC00020464FF480510022FCF78CFE0F20FEF7B4
:103FD000C1F820464FF480510122FCF783FE2846A9
:103FE00004210022FCF77EFE20464FF4805100227F
:103FF000FCF778FEE120FEF7ADF820464FF4805143
:104000000122FCF76FFE284604210122FCF76AFE1C
:1040100020464FF480510022FCF764FE0020FEF79A
:1040200099F820464FF480510122FCF75BFE2846A8
:1040300004210122FCF756FE20464FF48051002255
:10404000FCF750FE1720FEF785F820464FF480510C
:104050000122FCF747FE284604210122FCF742FE1C
:1040600020464FF480510022FCF73CFE1A20FEF758
:1040700071F820464FF480510122FCF733FE2846A8
:1040800004210122FCF72EFE20464FF4805100222D
:10409000FCF728FE0420FEF75DF820464FF480511F
:1040A0000122FCF71FFE284604210122FCF71AFE1C
:1040B00020464FF480510022FCF714FE0E20FEF73C
:1040C00049F820464FF480510122FCF70BFE2846A8
:1040D00004210122FCF706FE20464FF48051002205
:1040E000FCF700FE0620FEF735F820464FF480511D
:1040F0000122FCF7F7FD284604210122FCF7F2FD1E
:1041000020464FF480510022FCF7ECFD2F20FEF7F3
:1041100021F820464FF480510122FCF7E3FD2846A8
:1041200004210122FCF7DEFD20464FF480510022DD
:10413000FCF7D8FD4520FEF70DF820464FF48051DE
:104140000122FCF7CFFD284604210122FCF7CAFD1D
:1041500020464FF480510022FCF7C4FD4320FDF7B8
:10416000F9FF20464FF480510122FCF7BBFD2846A1
:1041700004210122FCF7B6FD20464FF480510022B5
:10418000FCF7B0FD0220FDF7E5FF20464FF480511B
:104190000122FCF7A7FD284604210122FCF7A2FD1D
:1041A00020464FF480510022FCF79CFD0A20FDF7C9
:1041B000D1FF20464FF480510122FCF793FD2846A1
:1041C00004210122FCF78EFD20464FF4805100228D
:1041D000FCF788FD0920FDF7BDFF20464FF4805114
:1041E0000122FCF77FFD284604210122FCF77AFD1D
:1041F00020464FF480510022FCF774FD3220FDF779
:10420000A9FF20464FF480510122FCF76BFD2846A0
:1042100004210122FCF766FD20464FF48051002264
:10422000FCF760FD3620FDF795FF20464FF48051E6
:104230000122FCF757FD284604210122FCF752FD1C
:1042400020464FF480510022FCF74CFD0F20FDF773
:1042500081FF20464FF480510122FCF743FD2846A0
:1042600004210022FCF73EFD20464FF4805100223D
:10427000FCF738FD1120FDF76DFF20464FF480510B
:104280000122FCF72FFD7820FEF7A6FF2846042127
:104290000022FCF727FD20464FF480510022FCF756
:1042A00021FD2920FDF756FF20464FF480510122C1
:1042B000FCF718FD40F2BC00C2F200002A21418147
:1042C0002B2181814FF4A07101804FF4F0710681A0
:1042D0004180284604210022FCF704FD20464FF4CB
:1042E00080510022FCF7FEFC3620FDF733FF20460C
:1042F0004FF480510122FCF7F5FC284604210122ED
:10430000FCF7F0FC20464FF480510022FCF7EAFC59
:10431000C820FDF71FFF20464FF480510122FCF713
:10432000E1FC4FF49660FEF757FF40F2FF7000F09B
:10433000F9F802B070BD00002DE9F04F85B00E9F76
:1043400093463A780390002A69D00F9C40F2BC084B
:104350006008DDF80CA099460E4604900020C2F2D9
:10436000000809E0CDE90075FEF760F80337A244C4
:1043700000203A78002A52D0B8F8001000281FFA1E
:104380008AF015D0091B814249DBB8F80220B1B28E
:10439000121B8A4243DB109D5A464B46182CE1D033
:1043A000202C14D1CDE90075FEF7CAF8DEE700BF76
:1043B000049BC91A814232DBB8F80230B1B21B1B30
:1043C0008B422CDBD2B2802A06D90120D1E7CDE97D
:1043D0000075FDF7A9FFC9E70D2A05D10137DDF802
:1043E0000CA026440137C3E7112C0CD300921022F5
:1043F000109D01925A464B460295FDF71DFC0AF1AD
:10440000080A0137B4E7109DCDE900245A464B460F
:104410000295FDF711FC049801378244A8E705B026
:10442000BDE8F08F10B540F60044C4F20104204608
:104430004FF40061FCF754FC20464FF48061FCF718
:104440004FFC20464FF48061BDE81040FCF746BCAD
:1044500010B540F60044C4F2010420464FF4006158
:10446000FCF73CFC20464FF48061FCF739FC204609
:104470004FF40061BDE81040FCF732BC70B541F26A
:104480000045C4F2010505F5806420464FF48061C3
:10449000FCF726FC40F29006C2F20006306840F2BB
:1044A0001C01C2F20001085C40F23401C2F20001BA
:1044B000085CFDF74FFE28460221FCF70FFC28465A
:1044C0000221FCF70DFC41F60C01C4F20101307829
:1044D0000A6822F470420A600A6842EA0030086002
:1044E00020464FF48061FCF7F9FB3068411C062838
:1044F000C8BF0021316070BD80B582B0102001219D
:10450000FCF744FC1120ADF8040000208DF80700F2
:1045100041F20000C4F2010001A9FCF73BFB02B02C
:1045200080BD00002DE9F04740F2BC09C2F200094D
:104530000746B9F80000B9F802100138013941F214
:10454000004882B28BB200200021C4F20108FEF7BD
:104550007FF840464FF480510022FCF7C3FBA8F5DA
:10456000006004210122FCF7BDFBB9F8020030B362
:10457000F82000EA1725FC2000EAD706F8004FF0E3
:10458000000AC7B206E000BFB9F802000AF1010A4A
:10459000824514D2B9F800000028F5D0002400BFED
:1045A0002846FDF7D7FD3046FDF7D4FD3846FDF728
:1045B000D1FDB9F8000001348442F1D3E4E740466C
:1045C0004FF480510122BDE8F047FCF78BBB00009F
:1045D0002DE9F04F91B040F22404C2F200041F20F4
:1045E000208040F21800C2F200004FF0FF3101803D
:1045F0004FF6FF70FFF796FF4FF4784B4FF6FF70C2
:10460000A4F800B0FFF78EFF4FF0000A01250FF667
:10461000A8330A2028211022A4F800A00095FEF754
:1046200017F90FF6B4330A20382110220095FEF74F
:104630000FF90FF6C8330A20482110220095FEF723
:1046400007F90FF6D8330A20582110220095FEF7FB
:10465000FFF80820142121221423A4F800B0FDF74C
:104660009DFA1420082114222123FDF797FA152022
:104670001521FDF73BFD13201521FDF737FD152012
:104680001321FDF733FD13201321FDF72FFD2288A1
:10469000142014210623CDF800A0FCF75DFF40F2A2
:1046A0004409C2F2000989F814A0C9F818A000242E
:1046B0000CE006230094FCF74FFF0A20FEF706FFEC
:1046C0000134A0B2B0F57A7F00F24E85D9F804101B
:1046D0000120884799F8140000F0C0014029ECD16E
:1046E00000F03F0089F81400D9F810105FFA8AF042
:1046F0000DAA03280AF1010A42F8201000F20983EA
:10470000DFE810F08B0095020400EC0040F2BC07DB
:10471000C2F200077C8840F22402A4F11400C2F225
:1047200000024FF6FF7186B2118090460820314694
:1047300021223346FDF732FAA4F12000E21F81B2B4
:1047400093B214201422FDF729FAA4F1130085B2C4
:1047500015202946FDF7CAFC13202946FDF7C6FCA3
:10476000A4F1150085B215202946FDF7BFFC1320E2
:104770002946FDF7BBFCB8F8002000241420314680
:1047800006230094FCF7E8FE3D887E88A5F114001E
:10479000A6F11401A8F800B01FFA80F8A5F12000D6
:1047A000EA1F1FFA81F980B292B249464B46FDF7E3
:1047B000F5F9A6F12000F21F81B293B240464246BD
:1047C000FDF7ECF9A5F11300A6F113011FFA80FB28
:1047D0008FB258463946FDF789FCA5F1150085B220
:1047E00028463946FDF782FCA6F1150087B25846E7
:1047F00039464FF4784BFDF779FC28463946FDF7EA
:1048000075FC40F22400C2F200000288494640F2E2
:1048100044094046C2F200094BE740F22408C2F2C4
:1048200000084FF6FF70A8F800000820142121228C
:104830001423FDF7B3F91420082114222123FDF7D6
:10484000ADF915201521FDF751FC13201521FDF7B9
:104850004DFC15201321FDF749FC13201321FDF712
:1048600045FCB8F8002000241420142106230094ED
:10487000FCF772FE40F2BC00C2F20000068814236E
:10488000A6F1140087B2A6F12000F11F80B28AB20F
:104890001421A8F800B0FDF781F9384608213A46FE
:1048A0002123FDF77BF9A6F1130085B228461521D7
:1048B000FDF71CFCA6F1150086B230461521FDF768
:1048C00015FC28461321FDF711FC30461321FDF796
:1048D0000DFCB8F8002038461421EAE6BDF8340093
:1048E000BDF83890BDF836A0BDF83A100C90A0EB9A
:1048F00009000B91AAEB0101404301FB0100FBF70A
:10490000D4FD02F0D3FAFBF7F6FDBDF83C70BDF81C
:104910004010BDF83E80BDF842200A91791A0897F0
:104920000992A8EB0202494302FB02110446084621
:10493000FBF7BBFD02F0BAFAFBF7DDFD05462046AA
:10494000FBF7AEFD06462846FBF7AAFD01463046BA
:10495000FBF79BFC0646FBF7EDFD074648F292701D
:10496000C0F600003A460B468B46CDE9004501F003
:1049700091FD46F26663384659464FF06632C3F6FB
:10498000EE73FBF769FD0028CDE9069840F0C4817D
:10499000002D18BF002C00F0BF814CF6CD424CF624
:1049A000CC4338465946CCF6CC42C3F6F073FBF7FD
:1049B00038FD002800F0B0810C980899401AAAEB45
:1049C0000801404301FB0100FBF76FFD02F06EFAA6
:1049D000FBF791FD0A990B9A099BA9EB0101D21AE9
:1049E000494302FB021104460846FBF75EFD02F054
:1049F0005DFAFBF780FD05462046FBF751FD0646B4
:104A00002846FBF74DFD01463046FBF73EFC83464A
:104A1000FBF790FD074648F27C70C0F600003A466E
:104A20000B460E46CDE9004501F034FD46F26663C3
:104A3000384631464FF06632C3F6EE73FBF70CFD95
:104A4000002840F006824CF6CD424CF6CC43384666
:104A50003146CCF6CC42C3F6F073FBF7E2FC0028FB
:104A600000F0F78108980B99A9EB0000A1EB080171
:104A7000404301FB0100FBF718FD02F017FAFBF7BA
:104A80003AFD0C990A9A0446891A099A4943AAEBF5
:104A9000020202FB02110846FBF707FD02F006FACC
:104AA000FBF729FD05462046FBF7FAFC044628469D
:104AB000FBF7F6FC01462046FBF7E7FB0746FBF752
:104AC00039FD46F266634FF06632C3F6EE73044674
:104AD0000D46FBF7C1FC40F2BC01C2F200010E889A
:104AE00070B94CF6CD424CF6CC4320462946CCF664
:104AF000CC42C3F6F073FBF794FC002840F0288208
:104B000040F2BC00C2F20000458840F22408A6F141
:104B10001400A5F11401C2F200084FF6FF72A8F8C4
:104B200000201FFA80FBA6F12000F21F1FFA81F976
:104B300080B292B249464B46FDF730F8A5F120000D
:104B4000EA1F81B293B258465A46FDF727F8A6F1FC
:104B50001300A5F11301059787B28CB238462146A0
:104B6000FDF7C4FAA6F1150086B230462146FDF7DE
:104B7000BDFAA5F1150084B238462146FDF7B6FA14
:104B800030462146FDF7B2FAB8F8002054464FF0FF
:104B9000000A584649460623CDF800A0FCF7DCFC85
:104BA0004FF4784B0820142121221423A8F800B0D8
:104BB000FCF7F4FF1420082114222123FCF7EEFF58
:104BC00015201521FDF792FA13201521FDF78EFA15
:104BD00015201321FDF78AFA13201321FDF786FA19
:104BE000B8F80020142014210623CDF800A0FCF70B
:104BF000B3FC05980021C4F2C821FBF714FBFBF7B6
:104C000061FC0746089821460090079801900A9891
:104C10000290099803900C98069A0B9B0497FEF754
:104C20000DFB40F244090024C2F200094EE540F2B7
:104C3000BC0BC2F2000BBBF8004040F22408A4F108
:104C40001400C2F200084FF6FF71A8F8001087B2F6
:104C5000A4F12000E11F80B28AB214211423FCF7D2
:104C60009DFF384608213A462123FCF797FFA4F11F
:104C7000130085B228461521FDF738FAA4F1150076
:104C800086B230461521FDF731FA28461321FDF78B
:104C90002DFA30461321FDF729FAB8F80020002438
:104CA0003846142106230094FCF756FCBBF802702A
:104CB0004FF4784BA7F1140086B208203146212228
:104CC0003346A8F800B0FCF769FFA7F12000FA1FEF
:104CD00081B293B214201422FCF760FFA7F11300F5
:104CE00085B215202946FDF701FA13202946FDF764
:104CF000FDF9A7F1150085B215202946FDF7F6F953
:104D000013202946FDF7F2F9B8F8002014203146A7
:104D1000CFE40024D1E400BF48F2D370C0F6000015
:104D200002F0B2F840F2BC00C2F2000004884588EC
:104D300040F22409A4F11400A5F11401C2F2000903
:104D40004FF6FF72A9F800201FFA80FBA4F12000A3
:104D5000E21F1FFA81F880B292B241464346FCF747
:104D60001DFFA5F12000EA1F81B293B258465A46B2
:104D7000FCF714FFA4F11300A5F1130187B2059607
:104D80008EB238463146FDF7B1F9A4F1150084B270
:104D900020463146FDF7AAF9A5F1150086B238463E
:104DA0003146FDF7A3F920463146FDF79FF9B9F8E2
:104DB000002054464FF0000A584641460623CDF8DD
:104DC00000A0FCF7C9FB4FF4784B082014212122E6
:104DD0001423A9F800B0FCF7E1FE142008211422E6
:104DE0002123FCF7DBFE15201521FDF77FF91320A9
:104DF0001521FDF77BF915201321FDF777F9132015
:104E00001321FDF773F9B9F8002040F24409C2F20A
:104E10000009142014210623CDF800A0FCF79CFB08
:104E200005980021C4F2C821FBF7FDF9FBF74AFB06
:104E30000746089821460090079801900A9802902A
:104E4000099803900C98069A0B9B0497FEF7F6F9C5
:104E50002DE448F2BF70C0F6000002F015F840F2F1
:104E6000BC00C2F200000488458840F22408A4F186
:104E70001400A5F11401C2F200084FF6FF72A8F861
:104E800000201FFA80F9A4F12000E21FCDF814B031
:104E90001FFA81FB80B292B259465B46FCF77EFE58
:104EA000A5F12000EA1F81B293B248464A46FCF7BA
:104EB00075FEA4F11300A5F1130186B28FB230463E
:104EC0003946FDF713F9A4F1150084B2204639469E
:104ED000FDF70CF9A5F1150087B230463946FDF70C
:104EE00005F920463946FDF701F9B8F80020544687
:104EF0004FF0000A484640F2440959460623C2F2E0
:104F00000009CDF800A0FCF727FB4FF4784B0820F0
:104F1000142121221423A8F800B0FCF73FFE14202E
:104F2000082114222123FCF739FE15201521FDF755
:104F3000DDF813201521FDF7D9F815201321FDF711
:104F4000D5F813201321FDF7D1F8B8F8002060E759
:104F5000A6F12800FBF79BFA0C9F0446A9EB07007B
:104F6000FBF795FA01462046FBF78FF940F244081B
:104F7000C2F200084C468146C8F818003046FBF7DC
:104F80008FFA0546E019FBF78BFA01464846FBF716
:104F90004AF901462846FBF740F94FF07C51FBF7F0
:104FA00042F9FBF78FFA40F2BC01C2F200014F88D0
:104FB000A8F82000A7F12800FBF769FA079C05462E
:104FC000A4EB0A00FBF763FA01462846FBF75DF9FC
:104FD0008346C8F81C003846FBF762FA054604EB26
:104FE0000A00FBF75DFA01465846FBF71CF901463B
:104FF0002846FBF712F94FF07C51FBF714F9FBF749
:1050000061FAA8F8220029F000404FF08041FBF738
:10501000FAF940B92BF000404FF08041FBF7E5F979
:10502000002840F0A68040F2240BA6F11400A7F15E
:105030001401C2F2000B4FF6FF72ABF800201FFA0A
:1050400080F8A6F12000F21F1FFA81F980B292B217
:1050500049464B46FCF7A2FDA7F12000FA1F81B29A
:1050600093B240464246FCF799FDA6F11300A7F122
:10507000130184B28DB220462946FDF737F8A6F118
:10508000150086B230462946FDF730F8A7F1150025
:1050900085B220462946FDF729F830462946FDF716
:1050A00025F8BBF800204FF0000A40464946062389
:1050B000CDF800A0FCF750FA4FF47840ABF80000B0
:1050C0000820142121221423FCF768FD1420082154
:1050D00014222123FCF762FD15201521FDF706F8A7
:1050E00013201521FDF702F815201321FCF7FEFF10
:1050F00013201321FCF7FAFFBBF800201420142121
:1051000006234FF4784BCDF800A0FCF725FA48F2BF
:10511000E67328201A211022C0F600030127009709
:10512000FDF796FB40F24409C2F2000999F8240009
:1051300040F21A02B0FA80F1490900286FF02F00FE
:1051400089F8241008BF6FF06F006FF06F01C2F292
:10515000000208BF6FF02F01107040F21B00C2F276
:1051600000000170FFF7A3BA11B0BDE8F04FFDF7E2
:10517000B3BB40F224011F20C2F2000108804FF6A9
:10518000FF70FFF7CFF948F2A7730127C0F60003BD
:1051900023206E2110220097FDF75AFB4FF47A70FE
:1051A000FEF794F9FDF716FD4FF6FF7011B0BDE85C
:1051B000F04FFFF7B7B900BF506C6561736520759C
:1051C000736520746865207374796C757320636CE3
:1051D00069636B207468650063726F7373206F6E10
:1051E000207468652073637265656E2E546865204F
:1051F00063726F73732077696C6C0000616C776108
:105200007973206D6F766520756E74696C20746893
:10521000652073637265656E2000000061646A75C5
:1052200073746D656E7420697320636F6D706C6547
:105230007465642E0000000010B540F60044C4F20E
:10524000010420464FF40061FBF74AFD20464FF46D
:105250008061FBF745FD20464FF40061FBF73EFD02
:1052600020464FF48061BDE81040FBF737BD0000D9
:10527000F0B581B038200121FBF788FD042040F60D
:105280000044C1F20300C4F201046E4600902046BF
:105290003146FBF77FFC4FF4005004F58065ADF814
:1052A000000028463146FBF775FC102004F5006726
:1052B000ADF8000038463146FBF76CFC384610214B
:1052C0000122FBF70FFD384610210022FBF70AFDF3
:1052D0006420FDF781FF384610210122FBF702FD13
:1052E000204604210022FBF7FDFC28464FF4005124
:1052F0000022FBF7F7FCAE20FCF72CFF28464FF40A
:1053000000510122FBF7EEFC204604210122FBF7AD
:10531000E9FC204604210022FBF7E4FC28464FF478
:1053200000510022FBF7DEFC0020FCF713FF2846AB
:105330004FF400510122FBF7D5FC20460421012245
:10534000FBF7D0FC204604210022FBF7CBFC2846CB
:105350004FF400510022FBF7C5FC1020FCF7FAFEC9
:1053600028464FF400510122FBF7BCFC20460421E3
:105370000122FBF7B7FC204604210022FBF7B2FC18
:1053800028464FF400510022FBF7ACFC4020FCF70C
:10539000E1FE28464FF400510122FBF7A3FC204612
:1053A00004210122FBF79EFC204604210022FBF78A
:1053B00099FC28464FF400510022FBF793FC812012
:1053C000FCF7C8FE28464FF400510122FBF78AFC87
:1053D000204604210122FBF785FC204604210022FF
:1053E000FBF780FC28464FF400510022FBF77AFCC3
:1053F000CF20FCF7AFFE28464FF400510122FBF707
:1054000071FC204604210122FBF76CFC204604219C
:105410000022FBF767FC28464FF400510022FBF7FF
:1054200061FCA120FCF796FE28464FF400510122B2
:10543000FBF758FC204604210122FBF753FC2046D1
:1054400004210022FBF74EFC28464FF400510022B5
:10545000FBF748FCC820FCF77DFE28464FF40051BE
:105460000122FBF73FFC204604210122FBF73AFC16
:10547000204604210022FBF735FC28464FF400515A
:105480000022FBF72FFCA620FCF764FE28464FF411
:1054900000510122FBF726FC204604210122FBF7E4
:1054A00021FC204604210022FBF71CFC28464FF477
:1054B00000510022FBF716FCA820FCF74BFE284603
:1054C0004FF400510122FBF70DFC2046042101227C
:1054D000FBF708FC204604210022FBF703FC2846CA
:1054E0004FF400510022FBF7FDFB3F20FCF732FE9A
:1054F00028464FF400510122FBF7F4FB204604211B
:105500000122FBF7EFFB204604210022FBF7EAFB18
:1055100028464FF400510022FBF7E4FBD320FCF7B0
:1055200019FE28464FF400510122FBF7DBFB204611
:1055300004210122FBF7D6FB204604210022FBF7C1
:10554000D1FB28464FF400510022FBF7CBFB002093
:10555000FCF700FE28464FF400510122FBF7C2FB86
:10556000204604210122FBF7BDFB20460421002236
:10557000FBF7B8FB28464FF400510022FBF7B2FBC3
:10558000D520FCF7E7FD28464FF400510122FBF738
:10559000A9FB204604210122FBF7A4FB204604219D
:1055A0000022FBF79FFB28464FF400510022FBF737
:1055B00099FB8020FCF7CEFD28464FF400510122D4
:1055C000FBF790FB204604210122FBF78BFB2046D2
:1055D00004210022FBF786FB28464FF400510022ED
:1055E000FBF780FBD920FCF7B5FD28464FF40051AE
:1055F0000122FBF777FB204604210122FBF772FB17
:10560000204604210022FBF76DFB28464FF4005191
:105610000022FBF767FBF120FCF79CFD28464FF4C6
:1056200000510122FBF75EFB204604210122FBF71B
:1056300059FB204604210022FBF754FB28464FF477
:1056400000510022FBF74EFBDA20FCF783FD2846D1
:105650004FF400510122FBF745FB204604210122B3
:10566000FBF740FB204604210022FBF73BFB2846CA
:105670004FF400510022FBF735FB1220FCF76AFDC6
:1056800028464FF400510122FBF72CFB2046042151
:105690000122FBF727FB204604210022FBF722FB17
:1056A00028464FF400510022FBF71CFBDB20FCF7DF
:1056B00051FD28464FF400510122FBF713FB204611
:1056C00004210122FBF70EFB204604210022FBF7F8
:1056D00009FB28464FF400510022FBF703FB402052
:1056E000FCF738FD28464FF400510122FBF7FAFA87
:1056F000204604210122FBF7F5FA2046042100226E
:10570000FBF7F0FA28464FF400510022FBF7EAFAC3
:105710002020FCF71FFD28464FF400510122FBF723
:10572000E1FA204604210122FBF7DCFA204604219D
:105730000022FBF7D7FA28464FF400510022FBF76E
:10574000D1FA0220FCF706FD28464FF40051012251
:10575000FBF7C8FA204604210122FBF7C3FA2046D2
:1057600004210022FBF7BEFA28464FF40051002224
:10577000FBF7B8FA8D20FCF7EDFC28464FF40051FA
:105780000122FBF7AFFA204604210122FBF7AAFA17
:10579000204604210022FBF7A5FA28464FF40051C9
:1057A0000022FBF79FFA1420FCF7D4FC28464FF4A4
:1057B00000510122FBF796FA204604210122FBF753
:1057C00091FA204604210022FBF78CFA28464FF478
:1057D00000510022FBF786FAA420FCF7BBFC284608
:1057E0004FF400510122FBF77DFA204604210122EB
:1057F000FBF778FA204604210022FBF773FA2846CB
:105800004FF400510022FBF76DFAA620FCF7A2FC32
:1058100028464FF400510122FBF764FA2046042188
:105820000122FBF75FFA204604210022FBF75AFA17
:1058300028464FF400510022FBF754FAAF20FCF742
:1058400089FC28464FF400510122FBF74BFA204611
:1058500004210122FBF746FA204604210022FBF72F
:1058600041FA28464FF400510022FBF73BFAAF20E3
:10587000FCF770FC28464FF400510122FBF732FA86
:10588000204604210122FBF72DFAFBF7CFFE002072
:105890000021FCF725F901B0F0BD0000B0B50446C9
:1058A000FBF7C4FE48F20E72C0F600020020002191
:1058B0000025FDF79FFA2575E582B0BD80B5002172
:1058C00041600172FBF7B2FE48F22D72C0F6000291
:1058D00000200021BDE88040FDF78CBAF0B581B012
:1058E0000446007804283BD8DFE800F0035D3C4222
:1058F0000900204601B0BDE8F04000F05BB8E08A46
:10590000013081B26429E0820AD30020E082207D48
:10591000217E0130C2B203399142B8BF0020207508
:10592000FBF784FE48F20E72C0F600020020002150
:105930000025FDF75FFA46F6F866C0F60006022776
:10594000207D217E284488420AD256F8202007EB89
:105950004500C1B20020FDF74DFA0135032DEFD10E
:1059600001B0F0BD204601B0BDE8F04000F0AAB99A
:1059700048F2BD62C0F6000200200221FDF73AFAAB
:10598000607E48F25E7148F20A72C0F60001C0F60D
:105990000002002808BF0A464020022101B0BDE8ED
:1059A000F040FDF727BA204601B0BDE8F04000F016
:1059B00047B800002DE9F04F81B08146FBF736FE75
:1059C0001BA2002000210024FDF714FA99F8010021
:1059D00099F80270451E38BF2546E81CC0B2B8428F
:1059E00038BF0746BD4220D247F2DC5BECB24FF035
:1059F000020A0FF24808C0F6000B08E05BF83420FA
:105A000008203146FDF7F6F90134BC420DD2601B87
:105A100099F801100AEB40008C42C6B2EED100208A
:105A200031464246FDF736FDE8E701B0BDE8F08FAC
:105A3000E4B8BBE88F9CE58D950000003E000000B7
:105A4000017A11B1416801314160F0B581B040681F
:105A50004BF2C531C9F2A211A0FB0112D20A4FF4D8
:105A6000616102FB110148F68903C8F68803A1FBB6
:105A70000317A0FB031359090901A1EB53117D0979
:105A8000A0EB810410270020022102230097FCF7DD
:105A9000DFFA48F20876C0F60006102002213246EE
:105AA000FDF7F8FC182002212A4602230097FCF794
:105AB000CFFA282002213246FDF7ECFC30200221EB
:105AC000224602230097FCF7C3FA01B0F0BD0000A4
:105AD000814640F27C00C2F20000007840F2B4043B
